:1000000012C01FC01EC01DC01CC01BC08AC019C0AA
:1000100018C017C016C015C014C013C012C011C03C
:1000200010C00FC00EC011241FBECFEDCDBF10E019
:10003000A0E6B0E001C01D92A736B107E1F7ECD011
:100040003EC2DECFDF93CF93CDB7DEB7E0E5F0E081
:100050001082E3E5F0E085E08083E9E5F0E082E00E
:100060008083A2E3B0E0E2E3F0E080818D7F8C93B7
:10007000A1E3B0E0E1E3F0E080818D7F8C93CF914C
:10008000DF910895DF93CF930F92CDB7DEB78983C9
:10009000F894909165008981892389839091650006
:1000A0008981892780936500789489810F90CF9109
:1000B000DF910895DF93CF930F92CDB7DEB7898399
:1000C000F8949091640089818923898390916400D8
:1000D0008981892780936400789489810F90CF91DA
:1000E000DF910895DF93CF930F92CDB7DEB7898369
:1000F000F89480916600982F909589818923C2DFBA
:100100000F90CF91DF910895DF93CF930F92CDB7EA
:10011000DEB789838981CEDFB5DF0F90CF91DF9184
:1001200008951F920F920FB60F9211248F939F93F1
:10013000EF93FF93DF93CF9300D0CDB7DEB7E2E527
:10014000F0E088ED8083E0E3F0E08081882F90E0AC
:1001500082709070009721F089818260898303C04A
:1001600089818D7F8983E9E3F0E08081882F90E0A9
:1001700082709070009721F089818160898303C02B
:1001800089818E7F898390916600898189278A83FE
:10019000909162008A81892380958093620090917A
:1001A00061008A8198238091620089278093610091
:1001B000909162008091610098238A8189238A83CB
:1001C000909166008A8189278093660090916600ED
:1001D0008A81982380916500892B809365008091A6
:1001E00060008F5F8093600080916000893138F0FB
:1001F00010926000809163008160809363000F9093
:100200000F90CF91DF91FF91EF919F918F910F9080
:100210000FBE0F901F901895DF93CF9300D000D0A2
:10022000CDB7DEB7198210926300DBD0A2E3B0E055
:10023000E2E3F0E0808180628C9378948B8181305E
:1002400029F08B81823011F081E08B838FEF1ADFF0
:100250008C838FEF47DF8C838FEF56DF8C838FEF9C
:1002600029DF8C83E0E3F0E08081882F90E08470C8
:100270009070009721F08A8181608A8303C08A810F
:100280008E7F8A83E6E3F0E08081882F90E08071A2
:100290009070009721F08A8182608A8303C08A81EE
:1002A0008D7F8A838A8183708A83E6E3F0E0808190
:1002B000882F90E084709070009711F1E0E3F0E0F7
:1002C0008081882F90E081709070882319F082E0FF
:1002D0008B8302C081E08B8382E0D4DE882309F027
:1002E0000000A8E3B0E0E8E3F0E0808181608C9357
:1002F000A8E3B0E0E8E3F0E0808182608C930FC077
:1003000082E0C0DE882359F08B81813019F482E0CD
:100310008B8305C08B81823011F481E08B838B81CC
:10032000813041F4A2E3B0E0E2E3F0E08081886054
:100330008C9307C0A2E3B0E0E2E3F0E08081877F26
:100340008C938B81813079F4A8E3B0E0E8E3F0E0AE
:1003500080818E7F8C93A8E3B0E0E8E3F0E08081B9
:1003600082608C9311C08B81823071F4A8E3B0E07D
:10037000E8E3F0E0808181608C93A8E3B0E0E8E3FB
:10038000F0E080818D7F8C939B818A81981711F09A
:1003900080E189838981882341F0A2E3B0E0E2E330
:1003A000F0E080818F7D8C9307C0A2E3B0E0E2E3B0
:1003B000F0E0808180628C9380916300882F90E0D0
:1003C00081709070882309F44DCF8981882319F0BA
:1003D000898181508983809163008E7F809363003F
:1003E00041CFDF93CF93CDB7DEB7E8E2F0E080E80E
:1003F0008083A2E3B0E0E2E3F0E080818E7F8C9323
:10040000A1E3B0E0E1E3F0E080818E7F8C93A8E38C
:10041000B0E0E8E3F0E080818B7F8C93A7E3B0E06D
:10042000E7E3F0E080818B7F8C93A2E3B0E0E2E32E
:10043000F0E080818B7F8C93A1E3B0E0E1E3F0E01A
:1004400080818B7F8C93A8E3B0E0E8E3F0E08081CB
:100450008F7E8C93A7E3B0E0E7E3F0E080818F7EAE
:100460008C93A1E3B0E0E1E3F0E0808188608C93BD
:10047000A1E3B0E0E1E3F0E0808180628C93A8E347
:10048000B0E0E8E3F0E0808181608C93A7E3B0E026
:10049000E7E3F0E0808181608C93A8E3B0E0E8E3DB
:1004A000F0E0808182608C93A7E3B0E0E7E3F0E0C6
:1004B000808182608C93C6DDCF91DF910895F8949E
:0204C000FFCF6C
:00000001FF
