:1000000012C01FC01EC01DC01CC01BC08AC019C0AA
:1000100018C017C016C015C014C013C012C011C03C
:1000200010C00FC00EC011241FBECFEDCDBF10E019
:10003000A0E6B0E001C01D92A736B107E1F7ECD011
:1000400059C3DECFDF93CF93CDB7DEB7E0E5F0E065
:100050001082E3E5F0E085E08083E9E5F0E082E00E
:100060008083A2E3B0E0E2E3F0E080818D7F8C93B7
:10007000A1E3B0E0E1E3F0E080818D7F8C93CF914C
:10008000DF910895DF93CF930F92CDB7DEB78983C9
:10009000F894909165008981892389839091650006
:1000A0008981892780936500789489810F90CF9109
:1000B000DF910895DF93CF930F92CDB7DEB7898399
:1000C000F8949091640089818923898390916400D8
:1000D0008981892780936400789489810F90CF91DA
:1000E000DF910895DF93CF930F92CDB7DEB7898369
:1000F000F89480916600982F909589818923C2DFBA
:100100000F90CF91DF910895DF93CF930F92CDB7EA
:10011000DEB789838981CEDFB5DF0F90CF91DF9184
:1001200008951F920F920FB60F9211248F939F93F1
:10013000EF93FF93DF93CF9300D0CDB7DEB7E2E527
:10014000F0E088ED8083E0E3F0E08081882F90E0AC
:1001500082709070009721F089818260898303C04A
:1001600089818D7F8983E9E3F0E08081882F90E0A9
:1001700082709070009721F089818160898303C02B
:1001800089818E7F898390916600898189278A83FE
:10019000909162008A81892380958093620090917A
:1001A00061008A8198238091620089278093610091
:1001B000909162008091610098238A8189238A83CB
:1001C000909166008A8189278093660090916600ED
:1001D0008A81982380916500892B809365008091A6
:1001E00060008F5F8093600080916000893138F0FB
:1001F00010926000809163008160809363000F9093
:100200000F90CF91DF91FF91EF919F918F910F9080
:100210000FBE0F901F901895DF93CF9300D000D0A2
:1002200000D0CDB7DEB71B821A821982AAE3B0E0F4
:10023000EAE3F0E0808181608C93ABE3B0E0EBE334
:10024000F0E0808181608C9310926300C1D1A2E3C1
:10025000B0E0E2E3F0E0808180628C93A2E3B0E062
:10026000E2E3F0E080818F7E8C93A2E3B0E0E2E3F2
:10027000F0E080818F7B8C937894ECE3F0E08081D8
:10028000882F90E082709070009749F0ECE3F0E0E6
:100290008081882F90E0827090700097B9F780E19C
:1002A00090E012D28D838D81813029F08D81823052
:1002B00011F081E08D838FEFE5DE8E838FEF12DF0B
:1002C0008E838FEF21DF8E838FEFF4DE8E83E0E36A
:1002D000F0E08081882F90E084709070009721F08A
:1002E0008C8181608C8303C08C818E7F8C83E6E35C
:1002F000F0E08081882F90E080719070009721F06D
:100300008C8182608C8303C08C818D7F8C838C81F7
:1003100083708C83E6E3F0E08081882F90E0847026
:100320009070009709F465C080916300882F90E079
:10033000867090700097A9F481E0A4DE8823E9F12B
:10034000A2E3B0E0E2E3F0E0808180618C9384E09E
:100350008A8384E189838091630084608093630051
:100360002CC080916300882F90E08270907000977D
:1003700021F181E087DE882389F08C81813071F45E
:10038000809163008D7F80936300A2E3B0E0E2E39D
:10039000F0E080818F7E8C9384E08A8382E072DE3D
:1003A000882359F08D81813019F482E08D8305C056
:1003B0008D81823011F481E08D8380916300882FDC
:1003C00090E084709070009741F18981882329F52D
:1003D00082E058DE8E8381E055DE8E83809163005B
:1003E0008B7F8093630080916300826080936300C1
:1003F00014C081E047DE882309F0000082E042DE7D
:10040000882359F08D81813019F482E08D8305C0F5
:100410008D81823011F481E08D838D81813041F4B2
:10042000A2E3B0E0E2E3F0E0808188608C9307C053
:10043000A2E3B0E0E2E3F0E08081877F8C939D81CE
:100440008C81981711F080E18B838B81882341F098
:10045000A2E3B0E0E2E3F0E080818F7D8C9307C0FF
:10046000A2E3B0E0E2E3F0E0808180628C938A81D5
:10047000882341F0A2E3B0E0E2E3F0E080818F7BEB
:100480008C9307C0A2E3B0E0E2E3F0E080818064F7
:100490008C9380916300882F90E081709070882306
:1004A00009F455C08B81882319F08B8181508B838F
:1004B0008A81882319F08A8181508A8389818823DF
:1004C00019F089818150898380916300882F90E0A1
:1004D00082709070009779F0A8E3B0E0E8E3F0E074
:1004E00080818E7F8C93A8E3B0E0E8E3F0E0808128
:1004F0008D7F8C9327C080916300882F90E084705B
:100500009070009789F0A8E3B0E0E8E3F0E0908114
:1005100081E089278C93A8E3B0E0E8E3F0E09081E4
:1005200082E089278C930EC0A8E3B0E0E8E3F0E016
:10053000808181608C93A8E3B0E0E8E3F0E0808103
:1005400082608C93809163008E7F809363008B81A7
:10055000882309F0BCCE8A81882309F0B8CE809127
:100560006300882F90E086709070009709F0AFCEFE
:10057000ECE3F0E08081882F90E08270907000972B
:1005800049F0ECE3F0E08081882F90E08270907079
:100590000097B9F780E190E06D819ED0ECE3F0E048
:1005A0008081882F90E082709070009749F0ECE392
:1005B000F0E08081882F90E0827090700097B9F70A
:1005C000ABE3B0E0EBE3F0E080818E7F8C937FCEF5
:1005D000DF93CF93CDB7DEB7E8E2F0E080E8808329
:1005E000A2E3B0E0E2E3F0E080818E7F8C93A1E3B0
:1005F000B0E0E1E3F0E080818E7F8C93A8E3B0E08F
:10060000E8E3F0E080818B7F8C93A7E3B0E0E7E341
:10061000F0E080818B7F8C93A2E3B0E0E2E3F0E036
:1006200080818B7F8C93A1E3B0E0E1E3F0E08081F7
:100630008B7F8C93A8E3B0E0E8E3F0E080818F7ECD
:100640008C93A7E3B0E0E7E3F0E080818F7E8C93AA
:10065000A1E3B0E0E1E3F0E0808188608C93A1E366
:10066000B0E0E1E3F0E0808180618C93A1E3B0E051
:10067000E1E3F0E0808180628C93A1E3B0E0E1E30C
:10068000F0E0808180648C93A8E3B0E0E8E3F0E0E0
:10069000808181608C93A7E3B0E0E7E3F0E08081A4
:1006A00081608C93A8E3B0E0E8E3F0E080818260B1
:1006B0008C93A7E3B0E0E7E3F0E0808182608C9365
:1006C000C1DCCF91DF910895E199FECF1FBA8EBBB7
:1006D000E09A99278DB30895262FE199FECF1CBA91
:1006E0001FBA8EBB2DBB0FB6F894E29AE19A0FBEEB
:0806F00001960895F894FFCF74
:00000001FF
